{
  "_format": "hh-sol-artifact-1",
  "contractName": "YourNFT",
  "sourceName": "contracts/YourNFT.sol",
  "abi": [
    {
      "inputs": [],
      "stateMutability": "nonpayable",
      "type": "constructor"
    },
    {
      "anonymous": false,
      "inputs": [
        {
          "indexed": true,
          "internalType": "address",
          "name": "owner",
          "type": "address"
        },
        {
          "indexed": true,
          "internalType": "address",
          "name": "approved",
          "type": "address"
        },
        {
          "indexed": true,
          "internalType": "uint256",
          "name": "tokenId",
          "type": "uint256"
        }
      ],
      "name": "Approval",
      "type": "event"
    },
    {
      "anonymous": false,
      "inputs": [
        {
          "indexed": true,
          "internalType": "address",
          "name": "owner",
          "type": "address"
        },
        {
          "indexed": true,
          "internalType": "address",
          "name": "operator",
          "type": "address"
        },
        {
          "indexed": false,
          "internalType": "bool",
          "name": "approved",
          "type": "bool"
        }
      ],
      "name": "ApprovalForAll",
      "type": "event"
    },
    {
      "anonymous": false,
      "inputs": [
        {
          "indexed": true,
          "internalType": "address",
          "name": "previousOwner",
          "type": "address"
        },
        {
          "indexed": true,
          "internalType": "address",
          "name": "newOwner",
          "type": "address"
        }
      ],
      "name": "OwnershipTransferred",
      "type": "event"
    },
    {
      "anonymous": false,
      "inputs": [
        {
          "indexed": true,
          "internalType": "address",
          "name": "from",
          "type": "address"
        },
        {
          "indexed": true,
          "internalType": "address",
          "name": "to",
          "type": "address"
        },
        {
          "indexed": true,
          "internalType": "uint256",
          "name": "tokenId",
          "type": "uint256"
        }
      ],
      "name": "Transfer",
      "type": "event"
    },
    {
      "inputs": [
        {
          "internalType": "address",
          "name": "to",
          "type": "address"
        },
        {
          "internalType": "uint256",
          "name": "tokenId",
          "type": "uint256"
        }
      ],
      "name": "approve",
      "outputs": [],
      "stateMutability": "nonpayable",
      "type": "function"
    },
    {
      "inputs": [
        {
          "internalType": "address",
          "name": "owner",
          "type": "address"
        }
      ],
      "name": "balanceOf",
      "outputs": [
        {
          "internalType": "uint256",
          "name": "",
          "type": "uint256"
        }
      ],
      "stateMutability": "view",
      "type": "function"
    },
    {
      "inputs": [
        {
          "internalType": "uint256",
          "name": "tokenId",
          "type": "uint256"
        }
      ],
      "name": "getApproved",
      "outputs": [
        {
          "internalType": "address",
          "name": "",
          "type": "address"
        }
      ],
      "stateMutability": "view",
      "type": "function"
    },
    {
      "inputs": [
        {
          "internalType": "uint256",
          "name": "tokenId",
          "type": "uint256"
        }
      ],
      "name": "getTokenURI",
      "outputs": [
        {
          "internalType": "string",
          "name": "",
          "type": "string"
        }
      ],
      "stateMutability": "view",
      "type": "function"
    },
    {
      "inputs": [
        {
          "internalType": "address",
          "name": "owner",
          "type": "address"
        },
        {
          "internalType": "address",
          "name": "operator",
          "type": "address"
        }
      ],
      "name": "isApprovedForAll",
      "outputs": [
        {
          "internalType": "bool",
          "name": "",
          "type": "bool"
        }
      ],
      "stateMutability": "view",
      "type": "function"
    },
    {
      "inputs": [
        {
          "internalType": "address",
          "name": "to",
          "type": "address"
        },
        {
          "internalType": "uint256",
          "name": "tokenId",
          "type": "uint256"
        },
        {
          "internalType": "string",
          "name": "tokenURI",
          "type": "string"
        }
      ],
      "name": "mint",
      "outputs": [],
      "stateMutability": "nonpayable",
      "type": "function"
    },
    {
      "inputs": [],
      "name": "name",
      "outputs": [
        {
          "internalType": "string",
          "name": "",
          "type": "string"
        }
      ],
      "stateMutability": "view",
      "type": "function"
    },
    {
      "inputs": [],
      "name": "owner",
      "outputs": [
        {
          "internalType": "address",
          "name": "",
          "type": "address"
        }
      ],
      "stateMutability": "view",
      "type": "function"
    },
    {
      "inputs": [
        {
          "internalType": "uint256",
          "name": "tokenId",
          "type": "uint256"
        }
      ],
      "name": "ownerOf",
      "outputs": [
        {
          "internalType": "address",
          "name": "",
          "type": "address"
        }
      ],
      "stateMutability": "view",
      "type": "function"
    },
    {
      "inputs": [],
      "name": "renounceOwnership",
      "outputs": [],
      "stateMutability": "nonpayable",
      "type": "function"
    },
    {
      "inputs": [
        {
          "internalType": "address",
          "name": "from",
          "type": "address"
        },
        {
          "internalType": "address",
          "name": "to",
          "type": "address"
        },
        {
          "internalType": "uint256",
          "name": "tokenId",
          "type": "uint256"
        }
      ],
      "name": "safeTransferFrom",
      "outputs": [],
      "stateMutability": "nonpayable",
      "type": "function"
    },
    {
      "inputs": [
        {
          "internalType": "address",
          "name": "from",
          "type": "address"
        },
        {
          "internalType": "address",
          "name": "to",
          "type": "address"
        },
        {
          "internalType": "uint256",
          "name": "tokenId",
          "type": "uint256"
        },
        {
          "internalType": "bytes",
          "name": "data",
          "type": "bytes"
        }
      ],
      "name": "safeTransferFrom",
      "outputs": [],
      "stateMutability": "nonpayable",
      "type": "function"
    },
    {
      "inputs": [
        {
          "internalType": "address",
          "name": "operator",
          "type": "address"
        },
        {
          "internalType": "bool",
          "name": "approved",
          "type": "bool"
        }
      ],
      "name": "setApprovalForAll",
      "outputs": [],
      "stateMutability": "nonpayable",
      "type": "function"
    },
    {
      "inputs": [
        {
          "internalType": "bytes4",
          "name": "interfaceId",
          "type": "bytes4"
        }
      ],
      "name": "supportsInterface",
      "outputs": [
        {
          "internalType": "bool",
          "name": "",
          "type": "bool"
        }
      ],
      "stateMutability": "view",
      "type": "function"
    },
    {
      "inputs": [],
      "name": "symbol",
      "outputs": [
        {
          "internalType": "string",
          "name": "",
          "type": "string"
        }
      ],
      "stateMutability": "view",
      "type": "function"
    },
    {
      "inputs": [
        {
          "internalType": "uint256",
          "name": "tokenId",
          "type": "uint256"
        }
      ],
      "name": "tokenURI",
      "outputs": [
        {
          "internalType": "string",
          "name": "",
          "type": "string"
        }
      ],
      "stateMutability": "view",
      "type": "function"
    },
    {
      "inputs": [
        {
          "internalType": "address",
          "name": "from",
          "type": "address"
        },
        {
          "internalType": "address",
          "name": "to",
          "type": "address"
        },
        {
          "internalType": "uint256",
          "name": "tokenId",
          "type": "uint256"
        }
      ],
      "name": "transferFrom",
      "outputs": [],
      "stateMutability": "nonpayable",
      "type": "function"
    },
    {
      "inputs": [
        {
          "internalType": "address",
          "name": "newOwner",
          "type": "address"
        }
      ],
      "name": "transferOwnership",
      "outputs": [],
      "stateMutability": "nonpayable",
      "type": "function"
    }
  ],
  "bytecode": "0x60806040523480156200001157600080fd5b506040518060400160405280600781526020017f596f75724e4654000000000000000000000000000000000000000000000000008152506040518060400160405280600481526020017f594e46540000000000000000000000000000000000000000000000000000000081525081600090816200008f919062000459565b508060019081620000a1919062000459565b505050620000c4620000b86200011160201b60201c565b6200011960201b60201c565b6040518060400160405280601581526020017f68747470733a2f2f697066732e696f2f697066732f0000000000000000000000815250600790816200010a919062000459565b5062000540565b600033905090565b6000600660009054906101000a900473ffffffffffffffffffffffffffffffffffffffff16905081600660006101000a81548173ffffffffffffffffffffffffffffffffffffffff021916908373ffffffffffffffffffffffffffffffffffffffff1602179055508173ffffffffffffffffffffffffffffffffffffffff168173ffffffffffffffffffffffffffffffffffffffff167f8be0079c531659141344cd1fd0a4f28419497f9722a3daafe3b4186f6b6457e060405160405180910390a35050565b600081519050919050565b7f4e487b7100000000000000000000000000000000000000000000000000000000600052604160045260246000fd5b7f4e487b7100000000000000000000000000000000000000000000000000000000600052602260045260246000fd5b600060028204905060018216806200026157607f821691505b60208210810362000277576200027662000219565b5b50919050565b60008190508160005260206000209050919050565b60006020601f8301049050919050565b600082821b905092915050565b600060088302620002e17fffffffffffffffffffffffffffffffffffffffffffffffffffffffffffffffff82620002a2565b620002ed8683620002a2565b95508019841693508086168417925050509392505050565b6000819050919050565b6000819050919050565b60006200033a620003346200032e8462000305565b6200030f565b62000305565b9050919050565b6000819050919050565b620003568362000319565b6200036e620003658262000341565b848454620002af565b825550505050565b600090565b6200038562000376565b620003928184846200034b565b505050565b5b81811015620003ba57620003ae6000826200037b565b60018101905062000398565b5050565b601f8211156200040957620003d3816200027d565b620003de8462000292565b81016020851015620003ee578190505b62000406620003fd8562000292565b83018262000397565b50505b505050565b600082821c905092915050565b60006200042e600019846008026200040e565b1980831691505092915050565b60006200044983836200041b565b9150826002028217905092915050565b6200046482620001df565b67ffffffffffffffff81111562000480576200047f620001ea565b5b6200048c825462000248565b62000499828285620003be565b600060209050601f831160018114620004d15760008415620004bc578287015190505b620004c885826200043b565b86555062000538565b601f198416620004e1866200027d565b60005b828110156200050b57848901518255600182019150602085019450602081019050620004e4565b868310156200052b578489015162000527601f8916826200041b565b8355505b6001600288020188555050505b505050505050565b612ca880620005506000396000f3fe608060405234801561001057600080fd5b50600436106101165760003560e01c8063715018a6116100a2578063b88d4fde11610071578063b88d4fde146102df578063c87b56dd146102fb578063d3fc98641461032b578063e985e9c514610347578063f2fde38b1461037757610116565b8063715018a61461027d5780638da5cb5b1461028757806395d89b41146102a5578063a22cb465146102c357610116565b806323b872dd116100e957806323b872dd146101b55780633bb3a24d146101d157806342842e0e146102015780636352211e1461021d57806370a082311461024d57610116565b806301ffc9a71461011b57806306fdde031461014b578063081812fc14610169578063095ea7b314610199575b600080fd5b61013560048036038101906101309190611a71565b610393565b6040516101429190611ab9565b60405180910390f35b610153610475565b6040516101609190611b64565b60405180910390f35b610183600480360381019061017e9190611bbc565b610507565b6040516101909190611c2a565b60405180910390f35b6101b360048036038101906101ae9190611c71565b61054d565b005b6101cf60048036038101906101ca9190611cb1565b610664565b005b6101eb60048036038101906101e69190611bbc565b6106c4565b6040516101f89190611b64565b60405180910390f35b61021b60048036038101906102169190611cb1565b610702565b005b61023760048036038101906102329190611bbc565b610722565b6040516102449190611c2a565b60405180910390f35b61026760048036038101906102629190611d04565b6107a8565b6040516102749190611d40565b60405180910390f35b61028561085f565b005b61028f610873565b60405161029c9190611c2a565b60405180910390f35b6102ad61089d565b6040516102ba9190611b64565b60405180910390f35b6102dd60048036038101906102d89190611d87565b61092f565b005b6102f960048036038101906102f49190611efc565b610945565b005b61031560048036038101906103109190611bbc565b6109a7565b6040516103229190611b64565b60405180910390f35b61034560048036038101906103409190612020565b610a0f565b005b610361600480360381019061035c919061208f565b610a30565b60405161036e9190611ab9565b60405180910390f35b610391600480360381019061038c9190611d04565b610ac4565b005b60007f80ac58cd000000000000000000000000000000000000000000000000000000007bffffffffffffffffffffffffffffffffffffffffffffffffffffffff1916827bffffffffffffffffffffffffffffffffffffffffffffffffffffffff1916148061045e57507f5b5e139f000000000000000000000000000000000000000000000000000000007bffffffffffffffffffffffffffffffffffffffffffffffffffffffff1916827bffffffffffffffffffffffffffffffffffffffffffffffffffffffff1916145b8061046e575061046d82610b47565b5b9050919050565b606060008054610484906120fe565b80601f01602080910402602001604051908101604052809291908181526020018280546104b0906120fe565b80156104fd5780601f106104d2576101008083540402835291602001916104fd565b820191906000526020600020905b8154815290600101906020018083116104e057829003601f168201915b5050505050905090565b600061051282610bb1565b6004600083815260200190815260200160002060009054906101000a900473ffffffffffffffffffffffffffffffffffffffff169050919050565b600061055882610722565b90508073ffffffffffffffffffffffffffffffffffffffff168373ffffffffffffffffffffffffffffffffffffffff16036105c8576040517f08c379a00000000000000000000000000000000000000000000000000000000081526004016105bf906121a1565b60405180910390fd5b8073ffffffffffffffffffffffffffffffffffffffff166105e7610bfc565b73ffffffffffffffffffffffffffffffffffffffff161480610616575061061581610610610bfc565b610a30565b5b610655576040517f08c379a000000000000000000000000000000000000000000000000000000000815260040161064c90612233565b60405180910390fd5b61065f8383610c04565b505050565b61067561066f610bfc565b82610cbd565b6106b4576040517f08c379a00000000000000000000000000000000000000000000000000000000081526004016106ab906122c5565b60405180910390fd5b6106bf838383610d52565b505050565b60606007600860008481526020019081526020016000206040516020016106ec929190612388565b6040516020818303038152906040529050919050565b61071d83838360405180602001604052806000815250610945565b505050565b60008061072e8361104b565b9050600073ffffffffffffffffffffffffffffffffffffffff168173ffffffffffffffffffffffffffffffffffffffff160361079f576040517f08c379a0000000000000000000000000000000000000000000000000000000008152600401610796906123f8565b60405180910390fd5b80915050919050565b60008073ffffffffffffffffffffffffffffffffffffffff168273ffffffffffffffffffffffffffffffffffffffff1603610818576040517f08c379a000000000000000000000000000000000000000000000000000000000815260040161080f9061248a565b60405180910390fd5b600360008373ffffffffffffffffffffffffffffffffffffffff1673ffffffffffffffffffffffffffffffffffffffff168152602001908152602001600020549050919050565b610867611088565b6108716000611106565b565b6000600660009054906101000a900473ffffffffffffffffffffffffffffffffffffffff16905090565b6060600180546108ac906120fe565b80601f01602080910402602001604051908101604052809291908181526020018280546108d8906120fe565b80156109255780601f106108fa57610100808354040283529160200191610925565b820191906000526020600020905b81548152906001019060200180831161090857829003601f168201915b5050505050905090565b61094161093a610bfc565b83836111cc565b5050565b610956610950610bfc565b83610cbd565b610995576040517f08c379a000000000000000000000000000000000000000000000000000000000815260040161098c906122c5565b60405180910390fd5b6109a184848484611338565b50505050565b60606109b282610bb1565b60006109bc611394565b905060008151116109dc5760405180602001604052806000815250610a07565b806109e6846113ab565b6040516020016109f79291906124db565b6040516020818303038152906040525b915050919050565b610a17611088565b610a218383611479565b610a2b8282611696565b505050565b6000600560008473ffffffffffffffffffffffffffffffffffffffff1673ffffffffffffffffffffffffffffffffffffffff16815260200190815260200160002060008373ffffffffffffffffffffffffffffffffffffffff1673ffffffffffffffffffffffffffffffffffffffff16815260200190815260200160002060009054906101000a900460ff16905092915050565b610acc611088565b600073ffffffffffffffffffffffffffffffffffffffff168173ffffffffffffffffffffffffffffffffffffffff1603610b3b576040517f08c379a0000000000000000000000000000000000000000000000000000000008152600401610b3290612571565b60405180910390fd5b610b4481611106565b50565b60007f01ffc9a7000000000000000000000000000000000000000000000000000000007bffffffffffffffffffffffffffffffffffffffffffffffffffffffff1916827bffffffffffffffffffffffffffffffffffffffffffffffffffffffff1916149050919050565b610bba816116bb565b610bf9576040517f08c379a0000000000000000000000000000000000000000000000000000000008152600401610bf0906123f8565b60405180910390fd5b50565b600033905090565b816004600083815260200190815260200160002060006101000a81548173ffffffffffffffffffffffffffffffffffffffff021916908373ffffffffffffffffffffffffffffffffffffffff160217905550808273ffffffffffffffffffffffffffffffffffffffff16610c7783610722565b73ffffffffffffffffffffffffffffffffffffffff167f8c5be1e5ebec7d5bd14f71427d1e84f3dd0314c0f7b2291e5b200ac8c7c3b92560405160405180910390a45050565b600080610cc983610722565b90508073ffffffffffffffffffffffffffffffffffffffff168473ffffffffffffffffffffffffffffffffffffffff161480610d0b5750610d0a8185610a30565b5b80610d4957508373ffffffffffffffffffffffffffffffffffffffff16610d3184610507565b73ffffffffffffffffffffffffffffffffffffffff16145b91505092915050565b8273ffffffffffffffffffffffffffffffffffffffff16610d7282610722565b73ffffffffffffffffffffffffffffffffffffffff1614610dc8576040517f08c379a0000000000000000000000000000000000000000000000000000000008152600401610dbf90612603565b60405180910390fd5b600073ffffffffffffffffffffffffffffffffffffffff168273ffffffffffffffffffffffffffffffffffffffff1603610e37576040517f08c379a0000000000000000000000000000000000000000000000000000000008152600401610e2e90612695565b60405180910390fd5b610e4483838360016116fc565b8273ffffffffffffffffffffffffffffffffffffffff16610e6482610722565b73ffffffffffffffffffffffffffffffffffffffff1614610eba576040517f08c379a0000000000000000000000000000000000000000000000000000000008152600401610eb190612603565b60405180910390fd5b6004600082815260200190815260200160002060006101000a81549073ffffffffffffffffffffffffffffffffffffffff02191690556001600360008573ffffffffffffffffffffffffffffffffffffffff1673ffffffffffffffffffffffffffffffffffffffff168152602001908152602001600020600082825403925050819055506001600360008473ffffffffffffffffffffffffffffffffffffffff1673ffffffffffffffffffffffffffffffffffffffff16815260200190815260200160002060008282540192505081905550816002600083815260200190815260200160002060006101000a81548173ffffffffffffffffffffffffffffffffffffffff021916908373ffffffffffffffffffffffffffffffffffffffff160217905550808273ffffffffffffffffffffffffffffffffffffffff168473ffffffffffffffffffffffffffffffffffffffff167fddf252ad1be2c89b69c2b068fc378daa952ba7f163c4a11628f55a4df523b3ef60405160405180910390a46110468383836001611702565b505050565b60006002600083815260200190815260200160002060009054906101000a900473ffffffffffffffffffffffffffffffffffffffff169050919050565b611090610bfc565b73ffffffffffffffffffffffffffffffffffffffff166110ae610873565b73ffffffffffffffffffffffffffffffffffffffff1614611104576040517f08c379a00000000000000000000000000000000000000000000000000000000081526004016110fb90612701565b60405180910390fd5b565b6000600660009054906101000a900473ffffffffffffffffffffffffffffffffffffffff16905081600660006101000a81548173ffffffffffffffffffffffffffffffffffffffff021916908373ffffffffffffffffffffffffffffffffffffffff1602179055508173ffffffffffffffffffffffffffffffffffffffff168173ffffffffffffffffffffffffffffffffffffffff167f8be0079c531659141344cd1fd0a4f28419497f9722a3daafe3b4186f6b6457e060405160405180910390a35050565b8173ffffffffffffffffffffffffffffffffffffffff168373ffffffffffffffffffffffffffffffffffffffff160361123a576040517f08c379a00000000000000000000000000000000000000000000000000000000081526004016112319061276d565b60405180910390fd5b80600560008573ffffffffffffffffffffffffffffffffffffffff1673ffffffffffffffffffffffffffffffffffffffff16815260200190815260200160002060008473ffffffffffffffffffffffffffffffffffffffff1673ffffffffffffffffffffffffffffffffffffffff16815260200190815260200160002060006101000a81548160ff0219169083151502179055508173ffffffffffffffffffffffffffffffffffffffff168373ffffffffffffffffffffffffffffffffffffffff167f17307eab39ab6107e8899845ad3d59bd9653f200f220920489ca2b5937696c318360405161132b9190611ab9565b60405180910390a3505050565b611343848484610d52565b61134f84848484611708565b61138e576040517f08c379a0000000000000000000000000000000000000000000000000000000008152600401611385906127ff565b60405180910390fd5b50505050565b606060405180602001604052806000815250905090565b6060600060016113ba8461188f565b01905060008167ffffffffffffffff8111156113d9576113d8611dd1565b5b6040519080825280601f01601f19166020018201604052801561140b5781602001600182028036833780820191505090505b509050600082602001820190505b60011561146e578080600190039150507f3031323334353637383961626364656600000000000000000000000000000000600a86061a8153600a85816114625761146161281f565b5b04945060008503611419575b819350505050919050565b600073ffffffffffffffffffffffffffffffffffffffff168273ffffffffffffffffffffffffffffffffffffffff16036114e8576040517f08c379a00000000000000000000000000000000000000000000000000000000081526004016114df9061289a565b60405180910390fd5b6114f1816116bb565b15611531576040517f08c379a000000000000000000000000000000000000000000000000000000000815260040161152890612906565b60405180910390fd5b61153f6000838360016116fc565b611548816116bb565b15611588576040517f08c379a000000000000000000000000000000000000000000000000000000000815260040161157f90612906565b60405180910390fd5b6001600360008473ffffffffffffffffffffffffffffffffffffffff1673ffffffffffffffffffffffffffffffffffffffff16815260200190815260200160002060008282540192505081905550816002600083815260200190815260200160002060006101000a81548173ffffffffffffffffffffffffffffffffffffffff021916908373ffffffffffffffffffffffffffffffffffffffff160217905550808273ffffffffffffffffffffffffffffffffffffffff16600073ffffffffffffffffffffffffffffffffffffffff167fddf252ad1be2c89b69c2b068fc378daa952ba7f163c4a11628f55a4df523b3ef60405160405180910390a4611692600083836001611702565b5050565b806008600084815260200190815260200160002090816116b69190612abd565b505050565b60008073ffffffffffffffffffffffffffffffffffffffff166116dd8361104b565b73ffffffffffffffffffffffffffffffffffffffff1614159050919050565b50505050565b50505050565b60006117298473ffffffffffffffffffffffffffffffffffffffff166119e2565b15611882578373ffffffffffffffffffffffffffffffffffffffff1663150b7a02611752610bfc565b8786866040518563ffffffff1660e01b81526004016117749493929190612be4565b6020604051808303816000875af19250505080156117b057506040513d601f19601f820116820180604052508101906117ad9190612c45565b60015b611832573d80600081146117e0576040519150601f19603f3d011682016040523d82523d6000602084013e6117e5565b606091505b50600081510361182a576040517f08c379a0000000000000000000000000000000000000000000000000000000008152600401611821906127ff565b60405180910390fd5b805181602001fd5b63150b7a0260e01b7bffffffffffffffffffffffffffffffffffffffffffffffffffffffff1916817bffffffffffffffffffffffffffffffffffffffffffffffffffffffff191614915050611887565b600190505b949350505050565b600080600090507a184f03e93ff9f4daa797ed6e38ed64bf6a1f01000000000000000083106118ed577a184f03e93ff9f4daa797ed6e38ed64bf6a1f01000000000000000083816118e3576118e261281f565b5b0492506040810190505b6d04ee2d6d415b85acef8100000000831061192a576d04ee2d6d415b85acef810000000083816119205761191f61281f565b5b0492506020810190505b662386f26fc10000831061195957662386f26fc10000838161194f5761194e61281f565b5b0492506010810190505b6305f5e1008310611982576305f5e10083816119785761197761281f565b5b0492506008810190505b61271083106119a757612710838161199d5761199c61281f565b5b0492506004810190505b606483106119ca57606483816119c0576119bf61281f565b5b0492506002810190505b600a83106119d9576001810190505b80915050919050565b6000808273ffffffffffffffffffffffffffffffffffffffff163b119050919050565b6000604051905090565b600080fd5b600080fd5b60007fffffffff0000000000000000000000000000000000000000000000000000000082169050919050565b611a4e81611a19565b8114611a5957600080fd5b50565b600081359050611a6b81611a45565b92915050565b600060208284031215611a8757611a86611a0f565b5b6000611a9584828501611a5c565b91505092915050565b60008115159050919050565b611ab381611a9e565b82525050565b6000602082019050611ace6000830184611aaa565b92915050565b600081519050919050565b600082825260208201905092915050565b60005b83811015611b0e578082015181840152602081019050611af3565b60008484015250505050565b6000601f19601f8301169050919050565b6000611b3682611ad4565b611b408185611adf565b9350611b50818560208601611af0565b611b5981611b1a565b840191505092915050565b60006020820190508181036000830152611b7e8184611b2b565b905092915050565b6000819050919050565b611b9981611b86565b8114611ba457600080fd5b50565b600081359050611bb681611b90565b92915050565b600060208284031215611bd257611bd1611a0f565b5b6000611be084828501611ba7565b91505092915050565b600073ffffffffffffffffffffffffffffffffffffffff82169050919050565b6000611c1482611be9565b9050919050565b611c2481611c09565b82525050565b6000602082019050611c3f6000830184611c1b565b92915050565b611c4e81611c09565b8114611c5957600080fd5b50565b600081359050611c6b81611c45565b92915050565b60008060408385031215611c8857611c87611a0f565b5b6000611c9685828601611c5c565b9250506020611ca785828601611ba7565b9150509250929050565b600080600060608486031215611cca57611cc9611a0f565b5b6000611cd886828701611c5c565b9350506020611ce986828701611c5c565b9250506040611cfa86828701611ba7565b9150509250925092565b600060208284031215611d1a57611d19611a0f565b5b6000611d2884828501611c5c565b91505092915050565b611d3a81611b86565b82525050565b6000602082019050611d556000830184611d31565b92915050565b611d6481611a9e565b8114611d6f57600080fd5b50565b600081359050611d8181611d5b565b92915050565b60008060408385031215611d9e57611d9d611a0f565b5b6000611dac85828601611c5c565b9250506020611dbd85828601611d72565b9150509250929050565b600080fd5b600080fd5b7f4e487b7100000000000000000000000000000000000000000000000000000000600052604160045260246000fd5b611e0982611b1a565b810181811067ffffffffffffffff82111715611e2857611e27611dd1565b5b80604052505050565b6000611e3b611a05565b9050611e478282611e00565b919050565b600067ffffffffffffffff821115611e6757611e66611dd1565b5b611e7082611b1a565b9050602081019050919050565b82818337600083830152505050565b6000611e9f611e9a84611e4c565b611e31565b905082815260208101848484011115611ebb57611eba611dcc565b5b611ec6848285611e7d565b509392505050565b600082601f830112611ee357611ee2611dc7565b5b8135611ef3848260208601611e8c565b91505092915050565b60008060008060808587031215611f1657611f15611a0f565b5b6000611f2487828801611c5c565b9450506020611f3587828801611c5c565b9350506040611f4687828801611ba7565b925050606085013567ffffffffffffffff811115611f6757611f66611a14565b5b611f7387828801611ece565b91505092959194509250565b600067ffffffffffffffff821115611f9a57611f99611dd1565b5b611fa382611b1a565b9050602081019050919050565b6000611fc3611fbe84611f7f565b611e31565b905082815260208101848484011115611fdf57611fde611dcc565b5b611fea848285611e7d565b509392505050565b600082601f83011261200757612006611dc7565b5b8135612017848260208601611fb0565b91505092915050565b60008060006060848603121561203957612038611a0f565b5b600061204786828701611c5c565b935050602061205886828701611ba7565b925050604084013567ffffffffffffffff81111561207957612078611a14565b5b61208586828701611ff2565b9150509250925092565b600080604083850312156120a6576120a5611a0f565b5b60006120b485828601611c5c565b92505060206120c585828601611c5c565b9150509250929050565b7f4e487b7100000000000000000000000000000000000000000000000000000000600052602260045260246000fd5b6000600282049050600182168061211657607f821691505b602082108103612129576121286120cf565b5b50919050565b7f4552433732313a20617070726f76616c20746f2063757272656e74206f776e6560008201527f7200000000000000000000000000000000000000000000000000000000000000602082015250565b600061218b602183611adf565b91506121968261212f565b604082019050919050565b600060208201905081810360008301526121ba8161217e565b9050919050565b7f4552433732313a20617070726f76652063616c6c6572206973206e6f7420746f60008201527f6b656e206f776e6572206f7220617070726f76656420666f7220616c6c000000602082015250565b600061221d603d83611adf565b9150612228826121c1565b604082019050919050565b6000602082019050818103600083015261224c81612210565b9050919050565b7f4552433732313a2063616c6c6572206973206e6f7420746f6b656e206f776e6560008201527f72206f7220617070726f76656400000000000000000000000000000000000000602082015250565b60006122af602d83611adf565b91506122ba82612253565b604082019050919050565b600060208201905081810360008301526122de816122a2565b9050919050565b600081905092915050565b60008190508160005260206000209050919050565b60008154612312816120fe565b61231c81866122e5565b94506001821660008114612337576001811461234c5761237f565b60ff198316865281151582028601935061237f565b612355856122f0565b60005b8381101561237757815481890152600182019150602081019050612358565b838801955050505b50505092915050565b60006123948285612305565b91506123a08284612305565b91508190509392505050565b7f4552433732313a20696e76616c696420746f6b656e2049440000000000000000600082015250565b60006123e2601883611adf565b91506123ed826123ac565b602082019050919050565b60006020820190508181036000830152612411816123d5565b9050919050565b7f4552433732313a2061646472657373207a65726f206973206e6f74206120766160008201527f6c6964206f776e65720000000000000000000000000000000000000000000000602082015250565b6000612474602983611adf565b915061247f82612418565b604082019050919050565b600060208201905081810360008301526124a381612467565b9050919050565b60006124b582611ad4565b6124bf81856122e5565b93506124cf818560208601611af0565b80840191505092915050565b60006124e782856124aa565b91506124f382846124aa565b91508190509392505050565b7f4f776e61626c653a206e6577206f776e657220697320746865207a65726f206160008201527f6464726573730000000000000000000000000000000000000000000000000000602082015250565b600061255b602683611adf565b9150612566826124ff565b604082019050919050565b6000602082019050818103600083015261258a8161254e565b9050919050565b7f4552433732313a207472616e736665722066726f6d20696e636f72726563742060008201527f6f776e6572000000000000000000000000000000000000000000000000000000602082015250565b60006125ed602583611adf565b91506125f882612591565b604082019050919050565b6000602082019050818103600083015261261c816125e0565b9050919050565b7f4552433732313a207472616e7366657220746f20746865207a65726f2061646460008201527f7265737300000000000000000000000000000000000000000000000000000000602082015250565b600061267f602483611adf565b915061268a82612623565b604082019050919050565b600060208201905081810360008301526126ae81612672565b9050919050565b7f4f776e61626c653a2063616c6c6572206973206e6f7420746865206f776e6572600082015250565b60006126eb602083611adf565b91506126f6826126b5565b602082019050919050565b6000602082019050818103600083015261271a816126de565b9050919050565b7f4552433732313a20617070726f766520746f2063616c6c657200000000000000600082015250565b6000612757601983611adf565b915061276282612721565b602082019050919050565b600060208201905081810360008301526127868161274a565b9050919050565b7f4552433732313a207472616e7366657220746f206e6f6e20455243373231526560008201527f63656976657220696d706c656d656e7465720000000000000000000000000000602082015250565b60006127e9603283611adf565b91506127f48261278d565b604082019050919050565b60006020820190508181036000830152612818816127dc565b9050919050565b7f4e487b7100000000000000000000000000000000000000000000000000000000600052601260045260246000fd5b7f4552433732313a206d696e7420746f20746865207a65726f2061646472657373600082015250565b6000612884602083611adf565b915061288f8261284e565b602082019050919050565b600060208201905081810360008301526128b381612877565b9050919050565b7f4552433732313a20746f6b656e20616c7265616479206d696e74656400000000600082015250565b60006128f0601c83611adf565b91506128fb826128ba565b602082019050919050565b6000602082019050818103600083015261291f816128e3565b9050919050565b60006020601f8301049050919050565b600082821b905092915050565b6000600883026129737fffffffffffffffffffffffffffffffffffffffffffffffffffffffffffffffff82612936565b61297d8683612936565b95508019841693508086168417925050509392505050565b6000819050919050565b60006129ba6129b56129b084611b86565b612995565b611b86565b9050919050565b6000819050919050565b6129d48361299f565b6129e86129e0826129c1565b848454612943565b825550505050565b600090565b6129fd6129f0565b612a088184846129cb565b505050565b5b81811015612a2c57612a216000826129f5565b600181019050612a0e565b5050565b601f821115612a7157612a42816122f0565b612a4b84612926565b81016020851015612a5a578190505b612a6e612a6685612926565b830182612a0d565b50505b505050565b600082821c905092915050565b6000612a9460001984600802612a76565b1980831691505092915050565b6000612aad8383612a83565b9150826002028217905092915050565b612ac682611ad4565b67ffffffffffffffff811115612adf57612ade611dd1565b5b612ae982546120fe565b612af4828285612a30565b600060209050601f831160018114612b275760008415612b15578287015190505b612b1f8582612aa1565b865550612b87565b601f198416612b35866122f0565b60005b82811015612b5d57848901518255600182019150602085019450602081019050612b38565b86831015612b7a5784890151612b76601f891682612a83565b8355505b6001600288020188555050505b505050505050565b600081519050919050565b600082825260208201905092915050565b6000612bb682612b8f565b612bc08185612b9a565b9350612bd0818560208601611af0565b612bd981611b1a565b840191505092915050565b6000608082019050612bf96000830187611c1b565b612c066020830186611c1b565b612c136040830185611d31565b8181036060830152612c258184612bab565b905095945050505050565b600081519050612c3f81611a45565b92915050565b600060208284031215612c5b57612c5a611a0f565b5b6000612c6984828501612c30565b9150509291505056fea2646970667358221220ed5dc2a01e55af50b34f96673caf4e7b88119db628fd91ac56745ad55e0a53d264736f6c63430008180033",
  "linkReferences": {},
  "deployedLinkReferences": {}
}